:020000040800F2
:10000000788500209D010008FD210008E5200008FA
:10001000F92100089D0300080524000800000000E5
:1000200000000000000000000000000005220008A1
:10003000A1030008000000000122000809220008B6
:10004000B7010008B7010008B7010008B7010008B0
:10005000B7010008B7010008B7010008B7010008A0
:10006000B7010008B7010008B7010008B701000890
:10007000B7010008B7010008B7010008B701000880
:10008000B7010008B7010008B7010008B701000870
:10009000B7010008B7010008B7010008B701000860
:1000A000B7010008B7010008B7010008B701000850
:1000B000B7010008B7010008B7010008B701000840
:1000C000B7010008B7010008B7010008B701000830
:1000D000B7010008B7010008B7010008B701000820
:1000E000B7010008B7010008B7010008B701000810
:1000F000CD220008B7010008B7010008B7010008C9
:10010000B7010008B7010008B7010008B7010008EF
:10011000B7010008B7010008B7010008B7010008DF
:10012000B7010008B7010008B7010008B7010008CF
:10013000B70100080000000000000000B70100083F
:10014000B7010008B7010008B7010008B7010008AF
:10015000B7010008B7010008B7010008B70100089F
:10016000B7010008B7010008B7010008B70100088F
:10017000B7010008B70100080000000000000000FF
:10018000B7010008B7010008DFF80CD000F0A2F8B2
:10019000004800472524000878850020064880474D
:1001A00006480047FEE7FEE7FEE7FEE7FEE7FEE75C
:1001B000FEE7FEE7FEE7FEE7B92200088901000836
:1001C0002DE9F05F0546002092469B46884606468C
:1001D000814640241BE0284641464746224600F01F
:1001E00069F853465A46C01A914110D31146184631
:1001F000224600F050F82D1A67EB01084F462246C0
:100200000120002100F047F817EB00094E41201EA5
:10021000A4F10104DFDC484631462A464346BDE8E6
:10022000F09F40EA01039B0703D009E008C9121FB1
:1002300008C0042AFAD203E011F8013B00F8013BA0
:10024000521EF9D27047D2B201E000F8012B491ECC
:10025000FBD270470022F6E710B513460A46044663
:100260001946FFF7F0FF204610BD30B50B4601469A
:1002700000202022012409E021FA02F59D4205D345
:1002800003FA02F5491B04FA02F52844151EA2F1EF
:100290000102F1DC30BD202A04DB203A00FA02F131
:1002A000002070479140C2F1200320FA03F3194364
:1002B00090407047202A04DB203A21FA02F0002106
:1002C000704721FA02F3D040C2F120029140084366
:1002D000194670471CB50948009009480190054629
:1002E000009C06E0E06840F0010394E807009847AE
:1002F0001034AC42F6D3FFF74BFF0000D4270008C0
:10030000F427000810B50024C4F2020420464FF47C
:100310008071012200F062FF282000F0F1FD2046EC
:100320004FF48071002200F059FF3C2000F0E8FDFE
:1003300020464FF48071012200F050FF502000F061
:10034000DFFD20464FF48071002200F047FF3C2083
:1003500000F0D6FD20464FF48071012200F03EFFF0
:10036000782000F0CDFD20464FF48071002200F08F
:1003700035FF3C2000F0C4FD20464FF4807101227F
:1003800000F02CFFA02000F0BBFD20464FF4807150
:100390000022BDE8104000F021BF0000FEE7000091
:1003A000704700002DE9F04748F24017C2F20007FD
:1003B00090463A78002A3DD0894648F2C001064668
:1003C000C0F3C620C2F20001085CC6F30221C84097
:1003D000C0072FD0BC6904E0BFF32F8F00220C466A
:1003E0005ABB00F06FFDA04216D2EFF3108272B636
:1003F000B969A14204D05AB1A1420DD11DE000BF9C
:100400003B69B86101333B61BFF35F8F002AF3D1D1
:1004100062B6A14211D000BF57E8061FA142DBD14E
:10042000BFF35F8F47E80602002AD7D1BFF35F8F83
:100430000122D4E70120BDE8F087B1B24FF00056A9
:1004400006EA99064FF080454FF0805305EA5805BB
:100450003144EFF3058203EAD003294440F2C00C93
:1004600001EB030E002A4FF00702C2F2000C18BF86
:100470000EF5002E57E8011F4B1C47E80134002CF5
:10048000F8D101F4F0436FF3DF210CEB011A56466B
:1004900056F80C1F4EEA432506E000BFBFF32F8F2E
:1004A00000210029214613D14B0110D401F0004353
:1004B00056E8004F2B448C4243F07063EED146E87F
:1004C00000310029ECD1BFF35F8F0121E9E7002360
:1004D000590105D4013ACDD107F10C0100201FE0EC
:1004E00083F0004101F0004220F0004029F0004379
:1004F00028F00045104413442A44CAE90003CAF80E
:10050000082021F0806007F10801BFF35F8F00BF72
:1005100056E8002F46E80002002AF9D1012000BF6A
:1005200051E8002F013241E80023002BF8D1BDE84B
:10053000F08700002DE9F04F89B088460146B8F1F8
:10054000000F4FF0000000F0AA82B2F5807F00F2A9
:10055000A68248F24016C2F20006307800283DD04C
:10056000174648F2C002C1F3C620C2F20002105C76
:10057000C1F30222D040C00730D0B5690C4604E078
:10058000BFF32F8F00220D4662BB00F09BFCA842F8
:1005900016D2EFF3108272B6B169A94204D05AB1F3
:1005A000A9420DD11EE000BF3369B0610133336150
:1005B000BFF35F8F002AF3D162B6A94212D000BF09
:1005C00056E8061FA942DBD1BFF35F8F46E806025B
:1005D000002AD7D1BFF35F8F0122D4E7012009B0F1
:1005E000BDE8F08FEFF305812246C0F20804002930
:1005F00008BF94B24FF08051002F5AD0092F01EA62
:10060000D00B80F097800021CDE9061106A90546A0
:10061000084641463A46FFF704FEDDE906AE4FF0D4
:10062000005000EA9A004FF0804101EA5E0167F352
:100630001240AC4600EB0109072700BF56E8010F46
:10064000411C46E80112002AF8D140F2C00100F432
:10065000F0436FF3DF20C2F2000101EB00184146C6
:1006600051F80C2F49EA432306E000BFBFF32F8F58
:100670000022002A024616D1500113D402F0004095
:10068000184440EA0B0551E8000F2543904245F01D
:100690007065EBD141E80052002AE9D1BFF35F8FCA
:1006A0000122E6E70025680100F1B380013FC5D1D2
:1006B0003CE001EAD00C4FF0070E00BF56E8011FE6
:1006C0004A1C46E80123002BF8D140F2C00201F495
:1006D000F0436FF3DF21C2F2000202EB0118414642
:1006E00051F80C2F4CEA432506E000BFBFF32F8FD3
:1006F0000022002A3A4614D1530111D402F00043DB
:100700002B4451E8007F2343974243F04063EDD1EF
:1007100041E80032002AEBD1BFF35F8F0122E8E706
:1007200000235A016BD4BEF1010EC7D106F10C02B1
:100730000020ADE1711C0397D1E84F2F531CC1E895
:10074000473F002FF8D14FF4E02101EA0249D8F8E1
:100750000430D8F800204FF00051CDE90623019273
:1007600001EA92014FF0804202EA530211444FF035
:10077000070ACDF814800293049100BF56E8011FC8
:100780004A1C46E80123002BF8D140F2C00201F4D4
:10079000F0476FF3DF21C2F2000202EB011E724646
:1007A000049952F80C3F41EA472505E0BFF32F8F2B
:1007B0000023002B0B4619D1590115D403F0004139
:1007C0002944214341EA0B0752E8001F47EA090781
:1007D000994247F05068E9D142E80083002BE7D105
:1007E000BFF35F8F0123E4E74FF000085FEA481C86
:1007F0001ED4BAF1010AC1D106F10C0338E083F02E
:10080000004404F0004220F000401044C8E9000217
:100810002EE185F0004404F000402CF000422AF064
:10082000004302440344C8E900232EF000421EE1C5
:10083000019D029F88F0004101F0004320F0004438
:1008400025F0004527F000471C441D443B44CEE9F9
:100850000045CEF8083021F0806106F10803BFF3AF
:100860005F8F00BF52E8007F42E80017002FF9D1E8
:10087000059900BF53E8002F571C43E80072002A77
:10088000F8D1BCF1000F03D4002009B0BDE8F08F0F
:100890004FF60172039D49EA020420F000400490E3
:1008A000083D092D01F10801C0F07F80D1F804E076
:1008B000D1F8008005914FF000504FF0804100EAE0
:1008C000980001EA5E0100EB010907220395CDE9DA
:1008D000068E00BF56E8010F411C46E80113002BAD
:1008E000F8D140F2C00100F4F0436FF3DF20C2F210
:1008F000000101EB001A554655F80C1F49EA432048
:1009000006E000BFBFF32F8F00210029394616D122
:100910004B0113D401F000430344234355E8007F07
:1009200043EA0B038F4243F04063EBD145E80031CB
:100930000029E9D1BFF35F8F0121E6E700235FEAD9
:10094000431C05D4013AC5D106F10C001CE000BFE0
:1009500083F00040049A00F0004128F000432EF09C
:1009600000470A440B443944CAE90023CAF8081076
:1009700020F08060BFF35F8F55E8001F45E800015D
:100980000029F9D106F10800039D059950E8002FD0
:10099000531C40E80032002AF8D10134BCF1000FAA
:1009A0004FF000003FF57CAF79E00020CDE9060074
:1009B00006A82A46FFF735FCFF20C7F2FF10DDE945
:1009C00006EC20404FF0005140EA052001EA9E016C
:1009D0004FF0804202EA5C02084340EA0205072425
:1009E00056E8010F411C46E80112002AF8D140F2F6
:1009F000C00100F4F0426FF3DF20C2F2000101EB0E
:100A00000018414651F80C7F45EA422006E000BF3D
:100A1000BFF32F8F0027002F174616D17A0113D46A
:100A200007F0004240EA020351E8002F43EA0B03BB
:100A3000BA4243F06063EBD141E80037002FE9D1BF
:100A4000BFF35F8F0127E6E70023580102D4013C82
:100A5000C6D16BE683F00044049A04F000402EF007
:100A6000004302440344C8E900232CF0004202443E
:100A7000C8F8082024F0806006F10802BFF35F8FF9
:100A800051E8003F41E80003002BF9D1012000BFED
:100A900052E8001F013142E80013002BF8D109B0E1
:100AA000BDE8F08F2DE9F04F83B048F2401A48F2CC
:100AB000C0068046C2F2000A0020C2F20006894643
:100AC0008AF8000030468021FFF7C4FB42F2C4617F
:100AD000C0F6000118224FF6FF7741F2210300BF54
:100AE0000D7887EA05276FF0070500BF3CB238464E
:100AF0007F00002C48BF83EA40070135F6D3013A56
:100B000001F10101ECD1DAF8200042F26B71CEF272
:100B1000A511884208D1BAF80200B9B2884205D1BD
:100B2000DAF81C00451C04E0CAF82010AAF802708C
:100B3000012540F2C007012DC2F200074FF000006E
:100B4000CAF81C500ED18AF80100CAE90100CAF89F
:100B50000C0040F2C000C2F200004FF40041FFF769
:100B600079FB0AE03918CA681030530144BF22F0FB
:100B70004062CA60B0F5004FF4D100F0AFF9012D2A
:100B800004460AD1002C4FF000050CBF002000F0F5
:100B90009FF9CAE90450CAF81850002C00F0E88008
:100BA000002001210022029405E000BF013004284A
:100BB00002F1200211D028FA00F3DB07F6D000235F
:100BC00002EBD30503F00707745D01FA07F7013361
:100BD0002743FF2B7755F3D1E8E7002031184A7FF0
:100BE000203042F0800280284A77F7D1002002E0CE
:100BF0002030802807D04028FAD13118CA7F42F02F
:100C00004002CA77F4E7CDF80490DAF8185004E00F
:100C1000BFF32F8F00220D4652BB00F053F9A842BC
:100C200018D2EFF3108272B6DAF81810A94203D086
:100C30006AB1A9420ED11BE0DAF81030CAF81800E8
:100C40000133CAF81030BFF35F8F002AF1D162B6CA
:100C5000A9420DD05AE8061FA942D9D1BFF35F8F30
:100C60004AE80602002AD5D1BFF35F8F0122D2E7FE
:100C7000DAF81CE0DAF814404FF080514FF00052DF
:100C800001EAD00102EA9E024FF0804303EA5403D6
:100C900011444FF6007601EB030B0727C0F60076F0
:100CA000009400BF5AE8011F4A1C4AE80123002BA8
:100CB000F8D140F2C00301F4F0426FF3DF21C2F239
:100CC000000303EB011C614651F80C8F4BEA4225EF
:100CD00005E000BFBFF32F8F0022C846A2B95FEA2C
:100CE000481210D408F0004251E8009F2A44C14540
:100CF00042EA0603EED141E80032002AECD1BFF30C
:100D00005F8F0122E9E700235A0105D4013FC9D1D1
:100D1000019C0AF10C001FE0009E83F0004202F0EB
:100D2000004320F000402EF0004726F00046184413
:100D30001F443344CCE90007CCF80830BFF35F8F81
:100D4000019C22F080620AF1080000BF51E8003FD8
:100D500041E80023002BF9D150E8001F013140E8A1
:100D60000012002AF8D1002C029C18BF00F004F8F1
:100D7000204603B0BDE8F08F2DE9F04381B048F282
:100D80004014C2F200042078002840F09680012030
:100D90002070A56905E000BFBFF32F8F00220D462C
:100DA00042BB00F08FF8A84216D2EFF3108272B661
:100DB000A169A94204D05AB1A9420DD11AE000BFDD
:100DC0002369A06101332361BFF35F8F002AF3D150
:100DD00062B6A9420ED000BF54E8061FA942DBD17B
:100DE000BFF35F8F44E80602002AD7D1BFF35F8FBD
:100DF0000122D4E74FF0805140F2C00C4FF601734E
:100E000001EAD00E4FF00709C2F2000CC0F60073E1
:100E100054E8011F4A1C44E80125002DF8D101F4D3
:100E2000F0426FF3DF210CEB0118414651F80C5FE3
:100E30004EEA422606E000BFBFF32F8F0025002DAB
:100E4000154613D16A0110D405F0004751E8002F70
:100E50003744AA4247EA0307EED141E80075002D66
:100E6000ECD1BFF35F8F0125E9E700277A0105D4B4
:100E7000B9F10109CCD104F10C0017E087F0004270
:100E800002F0004320F000401844C8E90003C8F80D
:100E9000083022F0806204F10800BFF35F8F00BFCA
:100EA00051E8003F41E80023002BF9D150E8001F32
:100EB000013140E80012002AF8D1012001B0BDE85C
:100EC000F083000041F20400CEF200000068704799
:100ED00040F20400C2F20000006870474EF6FC5079
:100EE000CEF20000016841F08071016041F2000122
:100EF000CEF20001086840F0010201200A6070474C
:100F0000B0B5044600F08AF9054640F20C00C2F282
:100F100000000078611C18BF044400BF00F07EF997
:100F2000401BA042FAD3B0BD2DE9F04F85B08446F6
:100F300000F13E4000F1FF704FEAB027092F0D4647
:100F4000CDF808C008D342F25F70C0F60000AC21B3
:100F500001F05AFADDF808C028680021B1EB104F03
:100F600001D180B240B942F25F70C0F60000AD21FD
:100F700001F04AFADDF808C06868B0F5881F80F211
:100F80000881122800F21F81012101FA00F00F21CF
:100F9000C0F20601084200F016810CF12000019019
:100FA00041F60040C4F202000821844508BF072131
:100FB0004FF0010E4FF000084FF0000B4FF0000A09
:100FC000072F38BF394603910AE000BF0AF1010A32
:100FD0000BF1020BBAF1100F08F1040800F0D680F3
:100FE00028680EFA0AF910EA0907EFD0686800F0DD
:100FF00003000138012825D8E86804280AD342F202
:101000005F70C0F60000C02101F0FEF9DDF808C0F5
:101010004FF0010EDCF80800032101FA0BF18843C0
:10102000E9686A6801FA0BF10843CCF80800DCF8BB
:101030000400C2F3001120EA090001FA0AF1084392
:10104000CCF80400686800F00300032819D0A868F1
:1010500003280AD342F25F70C0F60000D12101F0EC
:10106000D3F9DDF808C04FF0010EDCF80C000321C5
:10107000AA6801FA0BF1884302FA0BF10843CCF895
:101080000C00686800F00300022812D128690B28C0
:101090006CD26FF00300019C00EA5A00215808F05E
:1010A0001C020F232E699340994306FA02F2114362
:1010B0002150DCF8000003216A6801FA0BF1884333
:1010C00002F0030101FA0BF1084312F4403FCCF89F
:1010D00000003FF47BAF002043F644010490C4F2CB
:1010E0000201086843F6004440F480400860086844
:1010F000C4F2010400F48040049004982AF0030034
:101100004FF608462044CFF6FF76815908F00C02CE
:101110000F2393409943039B03FA02F21143815139
:10112000A068696840EA070243F60C46CB0258BF44
:1011300020EA0702A260C4F2010630688B0240EA8E
:10114000070258BF20EA0702326060688B0340EA5A
:10115000070258BF20EA070262602068C90340EA1C
:10116000070258BF20EA070222602FE70C2890D020
:101170000F288ED042F25F70C0F60000DE2101F031
:1011800043F9DDF808C04FF0010E82E705B0BDE875
:10119000F08FB0F5081F0CDAB0F5881F3FF4FDAEF4
:1011A000B0F5901F3FF4F9AEB0F5041F3FF4F5AE73
:1011B00009E03FF4F2AEB0F5441F3FF4EEAEB0F5F7
:1011C000481F3FF4EAAE42F25F70C0F60000AE2165
:1011D00001F01AF9DDF808C0DFE6000070B5154629
:1011E0000C46064671B1022D07D342F25F70C0F67D
:1011F00000004FF4CF7101F007F9002D08BF24045F
:10120000B46170BD42F25F70C0F6000040F29D1103
:1012100001F0FAF8022DE8D2EFE7000048F274106E
:10122000C2F200000068704740F20C0048F27411EE
:10123000C2F20000C2F2000100780A68104408609F
:101240007047000080B543F60040C4F20200016818
:1012500041F400710160016841F48061016001683E
:1012600041F480710160032000F0D2F80F2000F0FB
:1012700005F800F059F8002080BD0000B0B586B038
:10128000002543F644010195C4F202010A680446B0
:1012900042F002020A60096801A801F0020101910E
:1012A0000199694600F0E0F900F0FEF94DF683611E
:1012B0004000C4F21B31A0FB01014FF0FF3000EBF6
:1012C000914140F2400040F20042C2F20000C4F2FC
:1012D000010240F2E733C0E90021C0E90253056191
:1012E000856100F093FC08B106B0B0BD40F240004B
:1012F000C2F2000000F078FD0028F5D105462C2050
:1013000000F02EF80F2C0CD82C202146002200F0E3
:101310003FF840F21000C2F200000460284606B018
:10132000B0BD012006B0B0BD82B0002043F6400140
:101330000190C4F202014A6842F480424A604A685D
:1013400002F480420192019A0090086840F08050B7
:101350000860086800F080500090009802B0704764
:10136000B0F1FF3F0DDD00F01F01012202FA01F193
:101370001C2202EAD0004EF20012CEF2000281508E
:10138000704742F29870C0F60000BC2101F03CB8F2
:1013900070B515460E46102A044606D342F29870E0
:1013A000C0F60000A82101F02FF8102E06D342F25B
:1013B0009870C0F60000A92101F026F84EF60C50F6
:1013C000CEF2000001684FF0FF33C1F3022181F03B
:1013D0000702042A28BF0422033903FA02F238BFA5
:1013E000002126EA02028A4003FA01F125EA0101FE
:1013F000114304F1604204F00F03090102F5644255
:10140000043B1844002C48BF00F10C02117070BD61
:1014100010B504460338052806D342F29870C0F68A
:101420000000902100F0F0FF4EF60C50CEF20000CC
:1014300001684FF6FF02114064F30A2141F0806118
:1014400041F0FD71016010BD002804BF012070470C
:101450002DE9F041044600680D4601380F2807D3F6
:1014600042F22770C0F6000040F25A2100F0CCFF93
:10147000082D07D342F22770C0F6000040F25B212E
:1014800000F0C2FF43F60808C4F20208D8F8F803D7
:1014900000F00700A84208D288F8F853D8F8F803FB
:1014A00000F00700A84240F0B080206881071FD5F7
:1014B000410705D5D8F8001041F4E051C8F80010F4
:1014C000000705D5D8F8000040F46040C8F80000D7
:1014D000A0686FF0070101EB3011082980F0B5809A
:1014E000D8F80000A16820F0F0000843C8F8000018
:1014F0002078C00764D1D8F8F80300F00700A842AC
:1015000007D988F8F853D8F8F80300F00700A84284
:101510007BD12078400719D5E0686FF0030101EB1B
:10152000B02104290AD34FEAB02038B142F2277023
:10153000C0F6000040F2C32100F066FFD8F80000BA
:10154000E16820F4E0500843C8F800002078000764
:101550001AD520696FF0030101EBB02104290AD3E9
:101560004FEAB02038B142F22770C0F6000040F2D6
:10157000CA2100F049FFD8F80000216920F460403A
:1015800040EAC100C8F8000000F0A2F8D8F8001046
:1015900042F2AC62C1F30311C0F60002515C40F2AA
:1015A000040220FA01F140F21000C2F200000068CB
:1015B000C2F200021160FFF761FE0020BDE8F08179
:1015C0006068042807D342F22770C0F6000040F29A
:1015D000852100F019FF6068811E022907D258F8A2
:1015E000081C89015CBF0120BDE8F08110E00128E2
:1015F00007D158F8081C89035CBF0120BDE8F081C1
:1016000006E058F8081C890702D40120BDE8F081E3
:10161000D8F8001021F003010843C8F80000FFF7D4
:10162000FDFD064641F28837D8F80000616800F0F9
:101630000C00B0EB810F3FF45EAFFFF7EFFD801BB6
:10164000B842F1D90320BDE8F0814FEA30100028FC
:101650003FF446AF42F22770C0F6000040F27E2110
:1016600000F0D2FE3CE700000F22026043F60802C1
:10167000C4F20202136803F003034360136803F02B
:10168000F0038360136803F4E053C360D2F800C032
:101690004FF4E05303EADC030361D2F8F80300F0EF
:1016A000070008607047000040F2040043F608019C
:1016B000C2F20000C4F202010068096842F2BC6292
:1016C000C1F34231C0F60002515CC84070470000CF
:1016D00010B543F60404C4F20204606800F00C0084
:1016E00008280AD0042819BF42F20040C0F2F400D2
:1016F00047F64000C0F27D1010BD206821682368C5
:10170000490247F64001C0F27D1100F03F02C3F3E9
:1017100088105CBF42F20041C0F2F401A1FB00015D
:101720000023FEF74DFD21680222C1F3014102EBC7
:101730004101B0FBF1F010BD002804BF012070474B
:101740002DE9F04182B004460068102806D342F229
:101750002770C0F60000E62100F056FE207843F620
:101760000006C007C4F202065BD06068002818BFFC
:10177000B0F5803F21D1B06800F00C00042809D1F9
:10178000306880034DD5606800284AD1012002B03E
:10179000BDE8F081B06800F00C00082802D1706844
:1017A0004002EDD465683068B5F5A02F10D0B5F5CE
:1017B000803F14D140F4803017E0B0F5A02FDAD08C
:1017C00042F22770C0F60000EB2100F01DFED2E7C8
:1017D00040F480203060306840F4803005E020F430
:1017E00080303060306820F480203060FFF716FDD4
:1017F000002D054612D000BF3068800311D4FFF7DA
:101800000DFD401B6428F7D9A4E100BFFFF706FDDA
:10181000401B64284FF0030000F2688130688003A9
:10182000F4D42078800731D5E068022807D342F24B
:101830002770C0F6000040F21D1100F0E5FD2069A0
:10184000202807D342F22770C0F600004FF48F71B2
:1018500000F0DAFDB06810F00C0F09D0B06800F0AD
:101860000C00082840F0B3807068400200F1AF809F
:101870003068800703D5E068012840F0CC803068EC
:10188000216920F0F80040EAC100306020780007AC
:1018900044D42078400762D4A069032807D342F2D9
:1018A0002770C0F6000040F2CD1100F0ADFDA06938
:1018B00080B3B16801F00C01082940F0C380012811
:1018C00000F0A9807068E16900F480028A4240F06B
:1018D000A280216A00F03F028A4240F09C8047F6D5
:1018E000C071626A0140B1EB821F40F09480A16A2E
:1018F0004FF6FF73C903994300F44032A1F58031DC
:101900008A4240F08880E16A00F07060B0EB016FBD
:1019100040F08180002002B0BDE8F08160690228BB
:1019200007D342F22770C0F600004FF4AF7100F009
:101930006BFD6069002872D06020C4F2472001214D
:10194000C0F8201EFFF76AFC054600BF706F8007D5
:101950009FD4FFF763FC401B0228F7D9FAE0A06888
:10196000052805D8012101FA00F010F0230F07D156
:1019700042F22770C0F600004FF4C57100F044FD3C
:10198000306C5FEAC0080AD400200190306C40F04F
:1019900080503064306C00F080500190019847F224
:1019A0000007C4F200073868C00529D4386840F43D
:1019B00080703860FFF732FC054600BF3868C0050C
:1019C0001ED4FFF72BFC401B0228F7D9C2E0E068C9
:1019D000002840F26000C4F2472000F08A80012114
:1019E00040F8601CFFF71AFC054600BF306880070E
:1019F0003FF545AFFFF712FC401B0228F6D9A9E0DE
:101A0000A568306F052D00F08780012D40F08B8098
:101A100040F001008DE0012002B0BDE8F0816020BF
:101A2000C4F247200021C0F8201EFFF7F7FB05464F
:101A3000706F80077FF52DAFFFF7F0FB401B02288A
:101A4000F6D987E0022840F09C80E06940F48000ED
:101A5000B0F5800F07D042F22770C0F600004FF4B7
:101A6000EB7100F0D1FC206A02383E2807D342F225
:101A70002770C0F6000040F2D71100F0C5FC606A84
:101A80003238B0F5BF7F07D942F22770C0F60000A8
:101A90004FF4EC7100F0B8FCA06A082800F2A880AE
:101AA000012101FA00F010F4AA7F00F0A180E06AA1
:101AB00002380E2807D342F22770C0F600004FF418
:101AC000ED7100F0A1FC6027C4F2472700203860C8
:101AD000FFF7A4FB054600BF3068800166D5FFF71D
:101AE0009DFB401B02284FF00300F5D902B0BDE872
:101AF000F081002140F8601CFFF790FB054600BF15
:101B0000306880077FF5C2AEFFF788FB401B0228D4
:101B10004FF00300F4D9E9E740F004003067306F7C
:101B200040F0010005E020F001003067306F20F048
:101B300004003067FFF772FB002D054641F288373D
:101B400013D000BF306F800712D4FFF767FB401B34
:101B5000B842F7D9032002B0BDE8F081FFF75EFB81
:101B6000401BB8424FF00300C0D8306F8007F5D457
:101B7000B8F1000F3FF590AE306C20F0805030642B
:101B80008AE66020C4F2472000210160FFF746FB8F
:101B9000044600BF306880017FF5BCAEFFF73EFB16
:101BA000001B02284FF00300F4D99FE704F11C0545
:101BB0002FCD084340EA8210D9034FF6FF729143BC
:101BC000A1F5803140EA056008437060012038606B
:101BD000FFF724FB044600BF306880013FF59AAE52
:101BE000FFF71CFB001B02284FF00300F4D97DE730
:101BF00042F22770C0F6000040F2D91100F004FC58
:101C000055E700007047000070470000002804BF3F
:101C100001207047B0B50446006841F6FF31C4F2B8
:101C20000001884216DC40F6FF31C4F20001884210
:101C300025DD41F2FF31C4F2000188423BDC40F671
:101C40000041C4F2000188424CD041F20001C4F2CC
:101C5000000145E040F2FF31C4F2010188421CDD81
:101C600044F2FF31C4F2010188422FDC40F200410E
:101C7000C4F20101884235D044F200012EE0B0F1F7
:101C8000804F2FD040F20041C4F20001884229D099
:101C900040F60001C4F2000122E041F60041C4F226
:101CA000000188421ED042F20001C4F200018842C5
:101CB00018D0002112E041F20041C4F20001884234
:101CC00010D041F60001C4F2000109E044F20041E5
:101CD000C4F20101884205D044F60001C4F20101BA
:101CE000884275D1A0684FEA3010062867D80121D4
:101CF00001FA00F010F0570F61D02069002818BFDA
:101D0000B0F5807F48D12068B0F1804F05D040F613
:101D10000041C4F2000188424AD1E06838B942F279
:101D2000EF60C0F600004FF48B7100F06DFBA0690E
:101D3000251D40F08000802807D042F2EF60C0F6F9
:101D4000000040F2171100F05FFB94F83D0028B945
:101D5000002084F83C00204600F044F8022084F87B
:101D60003D002068294600F0B7FA012084F84600BB
:101D700084F83E0084F83F0084F8400084F8410075
:101D800084F8420084F8430084F8440084F8450055
:101D900084F83D000020B0BDB0F5007FB3D042F222
:101DA000EF60C0F6000040F2151100F02DFBAAE72D
:101DB000E0684FF6FF7101388842B0D2B7E742F2CF
:101DC000EF60C0F600004FF48A7100F01DFB94E74D
:101DD00042F2EF60C0F6000040F2131100F014FB75
:101DE00080E700007047000010B5016841F6FF323F
:101DF000C4F20002914216DC40F6FF32C4F2000247
:101E0000914225DD41F2FF32C4F2000291423BDCF7
:101E100040F60042C4F2000291424CD041F200026E
:101E2000C4F2000245E040F2FF32C4F201029142E6
:101E30001CDD44F2FF32C4F2010291422FDC40F279
:101E40000042C4F20102914235D044F200022EE079
:101E5000B1F1804F2FD040F20042C4F20002914213
:101E600029D040F60002C4F2000222E041F600420E
:101E7000C4F2000291421ED042F20002C4F20002FB
:101E8000914218D0002212E041F20042C4F2000256
:101E9000914210D041F60002C4F2000209E044F27F
:101EA0000042C4F20102914205D044F60002C4F29D
:101EB0000102914251D190F83D1001291CBF01202F
:101EC00010BD022180F83D10006841F2FF72C16828
:101ED000C4F20002904241F00101C1600DDC40F209
:101EE000FF71C4F20001884215DCB0F1804F29D0A7
:101EF00040F20041C4F2000122E040F2FF31C4F29E
:101F00000101884212DC41F60001C4F2000188425E
:101F100018D0002112E040F60001C4F2000188420E
:101F200010D040F60041C4F2000109E044F2000183
:101F3000C4F20101884205D040F20041C4F201011F
:101F4000884204D1816801F00701062903D00168A5
:101F500041F001010160002010BD42F2EF61C0F6C6
:101F60000001044608464FF4E87100F04DFA20469F
:101F7000A1E700007047000070B504460068C5681E
:101F80000669B10716D515F0020113D06FF00201F2
:101F90000161012121778069800703D02046FFF786
:101FA000E9FF05E0204600F08DF8204600F08CF8AF
:101FB00000202077700718D515F0040015D0206890
:101FC0006FF00401016102212177806910F4407FE4
:101FD00003D02046FFF7CEFF05E0204600F072F860
:101FE000204600F071F800202077300717D515F053
:101FF000080014D020686FF00801016104212177E6
:10200000C069800703D02046FFF7B4FF05E02046F3
:1020100000F058F8204600F057F800202077F0062E
:1020200018D515F0100015D020686FF0100101616F
:1020300008212177C06910F4407F03D02046FFF7C4
:1020400099FF05E0204600F03DF8204600F03CF8FE
:1020500000202077F00718BF15F0010002D13006EC
:1020600009D412E020686FF001010161204600F000
:102070002DF8300609D515F0800006D020686FF0E5
:10208000800101612046FFF7BDFD700609D515F0FE
:10209000400006D020686FF040010161204600F04A
:1020A0001FF8B00658BF70BD15F0200008D0216899
:1020B0006FF0200220460A61BDE87040FFF7A4BD22
:1020C00070BD00007047000070470000006840F2DB
:1020D0000041C4F20101884218BF7047FFF7A4B85D
:1020E00070470000FEE7000010B50024C4F20204AF
:1020F000204610210122FFF771F8A020FEF700FF13
:10210000204610210022FFF769F8A020FEF7F8FE14
:10211000204620210122FFF761F8A020FEF7F0FE03
:10212000204620210022FFF759F8A020FEF7E8FE04
:10213000204640210122FFF751F8A020FEF7E0FEE3
:10214000204640210022FFF749F8A020FEF7D8FEE4
:10215000204680210122FFF741F8A020FEF7D0FEA3
:10216000204680210022FFF739F8A020BDE810406A
:10217000FEF7C6BEF0B587B0002643F630000696DF
:10218000CDE90466CDE902660196C4F20200016859
:10219000002441F0800101600168C4F2020401F0F2
:1021A00080010191019901960168002241F001012D
:1021B000016000684FF4F87100F00100019001988F
:1021C0002046FFF70BF8F0200290022002AD012715
:1021D000059020462946CDE90376FEF7A5FE4FF48B
:1021E0008070CDE9020720462946CDE90466FEF756
:1021F0009BFE07B0F0BD0000FEE70000FEE7000018
:1022000070470000704700007047000070B592B042
:1022100006AC20463021FEF71DF8002543F64000AD
:102220000595CDE90355CDE901550095C4F20200AD
:102230000168022641F080510160006800F0805082
:102240000090009847F200000095C4F20000016879
:1022500041F480410160006800F4804000900098E3
:10226000012006904FF4803007904FF480000D90CD
:1022700019200E904FF4A870CDE90F06042011909C
:1022800020460C96FFF758FA08B172B6FEE70F2009
:10229000CDE901064FF4A05004904FF48050059012
:1022A00001A805210395FFF7CFF810B172B600BF62
:1022B000FEE712B070BD00004EF68850CEF200006E
:1022C000016841F4700101607047000040F2400075
:1022D000C2F20000FFF750BEB0B540F6FF3E056801
:1022E000C4F2000E40F2004C7045C4F2010C0FDC49
:1022F000B0F1804F19D040F20043C4F2000398427D
:1023000013D040F60003C4F2000398420DD011E050
:1023100040F60043C4F20003984206D0604504D062
:102320000023C4F20103984204D14B6825F07002E7
:1023300043EA020541F6FF73C4F2000398420FDC42
:10234000704521DCB0F1804F41D040F20043C4F22F
:10235000000398423BD040F60003C4F2000334E08F
:1023600043F6FF73C4F2010398421EDC42F20003FD
:10237000C4F2000398422AD00023C4F20103984219
:1023800025D0604523D027E040F60043C4F2000387
:1023900098421CD041F60003C4F20003984216D0C4
:1023A00041F60043C4F200030FE044F20003C4F21C
:1023B000010398420BD044F60003C4F20103984293
:1023C00005D044F20043C4F20103984204D1CB6823
:1023D00025F4407243EA02050A688C684B69C462BE
:1023E00040F480648262644504BF09690163026845
:1023F00025F0800142F0040219430260012242618B
:102400000160B0BDFEE700007047000040F200022E
:10241000C2F2000291421CBF4FF0FF30704700F043
:1024200055B8000000240F200A21C4F20204FEF770
:1024300039FBFEF7A1FCFEF705FFFFF7E7FEFFF70C
:1024400099FEFDF75FFF42F2DC6548F2701740F23B
:102450000806C0F60005C2F20007C2F200060FF23D
:1024600068080FE0FFF740FEC820FEF749FD4EF672
:10247000207029467422FDF795FF386800281CBF9C
:10248000013838604FF46F4029466822FDF78AFF13
:10249000396811B1404600F03FF830680028E1D0BB
:1024A00020464FF480710122FEF798FEC820FEF707
:1024B00027FD20464FF480710022FEF78FFE306822
:1024C00001383060CEE700BF25640000B0B548F2A7
:1024D0006C14C2F200042168072984BF4FF0FF305A
:1024E000B0BD48F264134A1CC2F200030A282260FD
:1024F00058541CBF082AB0BD4FF6006348F264115F
:10250000C0F20203C2F2000105461846FEF712F8B7
:10251000284600212160B0BD0FB4054B10B503A9BA
:10252000044A029800F018F810BC5DF814FB000093
:102530000D2400080000002002E008C8121F08C196
:10254000002AFAD170477047002001E001C1121F34
:10255000002AFBD1704700002DE9FF4F89B09B4650
:102560000446002506E025280BD05A460B999047D3
:10257000641C6D1C20780028F5D10DB02846BDE8FC
:10258000F08F0027B8460122474900E0074314F8BE
:10259000013F203B02FA03F00842F7D120782E28B1
:1025A00019D114F8010F47F004072A280ED06FF054
:1025B0002F022078A0F1300109290CD808EB8801FE
:1025C00002EB410100EB0108641CF2E70A98641C6D
:1025D00050F8048B0A9020780028CED0642808D0C8
:1025E000692806D075281ED05A460B9990476D1C55
:1025F00058E00A994FF00A0901C90A91002802DA45
:1026000040422D2102E0390504D52B218DF8201000
:10261000012103E0F90704D02021F7E78A4608AE3C
:102620000DE00021FAE70A994FF00A0901C90A9161
:10263000F7E74946FDF719FE303106F8011D00287D
:10264000F7D1ADEB060000F12009780701D44FF077
:102650000108C84502DDA8EB090000E00020804623
:10266000002706E008A85A46C05D0B9990476D1CEC
:102670007F1C5745F6DB04E030205A460B99904703
:102680006D1CB8F10001A8F10108F5DC05E016F8B1
:10269000010B5A460B9990476D1CB9F10001A9F145
:1026A0000109F4DC641C65E7092801000000000052
:1026B00000000000010203040607080900000000F2
:1026C000010203040100010100080000C000002015
:1026D000C080002040810020000000002E2E2F43EB
:1026E0006F72652F5372632F6D61696E2E63002EBA
:1026F0002E2F447269766572732F53544D333246D0
:102700003478785F48414C5F4472697665722F5324
:1027100072632F73746D3332663478785F68616CDE
:102720005F74696D2E63002E2E2F44726976657278
:10273000732F53544D3332463478785F48414C5FA1
:102740004472697665722F5372632F73746D3332DE
:10275000663478785F68616C5F7263632E63002E05
:102760002E2F447269766572732F53544D3332465F
:102770003478785F48414C5F4472697665722F53B4
:1027800072632F73746D3332663478785F68616C6E
:102790005F6770696F2E63002E2E2F447269766515
:1027A00072732F53544D3332463478785F48414C1E
:1027B0005F4472697665722F5372632F73746D3341
:1027C00032663478785F68616C5F636F72746578C5
:1027D0002E630000002800080000002040000000D8
:1027E00038250008402800084000002038850000F7
:1027F0004825000800000000000000000000000064
:10280000000000000024F4000500000001000000AA
:1028100010000000000000000000000000000000A8
:1028200000000000000000000000000000000000A8
:102830000000000000000000000000000000000098
:040000050800018965
:00000001FF
